{
  "contractName": "FlightSuretyData",
  "abi": [
    {
      "constant": true,
      "inputs": [],
      "name": "REGISTRATION_FEE",
      "outputs": [
        {
          "name": "",
          "type": "uint256"
        }
      ],
      "payable": false,
      "stateMutability": "view",
      "type": "function"
    },
    {
      "constant": true,
      "inputs": [
        {
          "name": "",
          "type": "uint256"
        }
      ],
      "name": "multiCalls",
      "outputs": [
        {
          "name": "",
          "type": "address"
        }
      ],
      "payable": false,
      "stateMutability": "view",
      "type": "function"
    },
    {
      "constant": true,
      "inputs": [
        {
          "name": "",
          "type": "address"
        }
      ],
      "name": "insurancePassengers",
      "outputs": [
        {
          "name": "isInsured",
          "type": "bool"
        }
      ],
      "payable": false,
      "stateMutability": "view",
      "type": "function"
    },
    {
      "inputs": [
        {
          "name": "wallet",
          "type": "address"
        }
      ],
      "payable": false,
      "stateMutability": "nonpayable",
      "type": "constructor"
    },
    {
      "payable": true,
      "stateMutability": "payable",
      "type": "fallback"
    },
    {
      "constant": false,
      "inputs": [],
      "name": "clearMultiCalls",
      "outputs": [],
      "payable": false,
      "stateMutability": "nonpayable",
      "type": "function"
    },
    {
      "constant": false,
      "inputs": [
        {
          "name": "_i",
          "type": "uint256"
        }
      ],
      "name": "getMultiCallsItem",
      "outputs": [
        {
          "name": "",
          "type": "address"
        }
      ],
      "payable": false,
      "stateMutability": "nonpayable",
      "type": "function"
    },
    {
      "constant": false,
      "inputs": [],
      "name": "multiCallsLength",
      "outputs": [
        {
          "name": "",
          "type": "uint256"
        }
      ],
      "payable": false,
      "stateMutability": "nonpayable",
      "type": "function"
    },
    {
      "constant": false,
      "inputs": [
        {
          "name": "_address",
          "type": "address"
        }
      ],
      "name": "putMultiCallsItem",
      "outputs": [],
      "payable": false,
      "stateMutability": "nonpayable",
      "type": "function"
    },
    {
      "constant": false,
      "inputs": [
        {
          "name": "passenger",
          "type": "address"
        }
      ],
      "name": "isPassengerInsured",
      "outputs": [
        {
          "name": "isInsured",
          "type": "bool"
        }
      ],
      "payable": false,
      "stateMutability": "nonpayable",
      "type": "function"
    },
    {
      "constant": false,
      "inputs": [
        {
          "name": "mode",
          "type": "bool"
        }
      ],
      "name": "setOperatingStatus",
      "outputs": [],
      "payable": false,
      "stateMutability": "nonpayable",
      "type": "function"
    },
    {
      "constant": true,
      "inputs": [],
      "name": "isOperational",
      "outputs": [
        {
          "name": "",
          "type": "bool"
        }
      ],
      "payable": false,
      "stateMutability": "view",
      "type": "function"
    },
    {
      "constant": true,
      "inputs": [
        {
          "name": "wallet",
          "type": "address"
        }
      ],
      "name": "isAirlineRegistered",
      "outputs": [
        {
          "name": "success",
          "type": "bool"
        }
      ],
      "payable": false,
      "stateMutability": "view",
      "type": "function"
    },
    {
      "constant": true,
      "inputs": [
        {
          "name": "wallet",
          "type": "address"
        }
      ],
      "name": "isAirlineFunded",
      "outputs": [
        {
          "name": "success",
          "type": "bool"
        }
      ],
      "payable": false,
      "stateMutability": "view",
      "type": "function"
    },
    {
      "constant": true,
      "inputs": [],
      "name": "getAirlineNum",
      "outputs": [
        {
          "name": "num",
          "type": "uint256"
        }
      ],
      "payable": false,
      "stateMutability": "view",
      "type": "function"
    },
    {
      "constant": true,
      "inputs": [
        {
          "name": "wallet",
          "type": "address"
        }
      ],
      "name": "getPassengerCredits",
      "outputs": [
        {
          "name": "amount",
          "type": "uint256"
        }
      ],
      "payable": false,
      "stateMutability": "view",
      "type": "function"
    },
    {
      "constant": true,
      "inputs": [],
      "name": "getContractBalance",
      "outputs": [
        {
          "name": "balance",
          "type": "uint256"
        }
      ],
      "payable": false,
      "stateMutability": "view",
      "type": "function"
    },
    {
      "constant": true,
      "inputs": [
        {
          "name": "wallet",
          "type": "address"
        }
      ],
      "name": "getAirlineFund",
      "outputs": [
        {
          "name": "balance",
          "type": "uint256"
        }
      ],
      "payable": false,
      "stateMutability": "view",
      "type": "function"
    },
    {
      "constant": false,
      "inputs": [
        {
          "name": "wallet",
          "type": "address"
        }
      ],
      "name": "registerAirline",
      "outputs": [],
      "payable": false,
      "stateMutability": "nonpayable",
      "type": "function"
    },
    {
      "constant": false,
      "inputs": [
        {
          "name": "flightCode",
          "type": "string"
        },
        {
          "name": "timestamp",
          "type": "uint256"
        },
        {
          "name": "airlineWallet",
          "type": "address"
        },
        {
          "name": "passengerWallet",
          "type": "address"
        },
        {
          "name": "payedAmount",
          "type": "uint256"
        }
      ],
      "name": "buy",
      "outputs": [],
      "payable": false,
      "stateMutability": "nonpayable",
      "type": "function"
    },
    {
      "constant": false,
      "inputs": [
        {
          "name": "flightCode",
          "type": "string"
        }
      ],
      "name": "getPassengersInsured",
      "outputs": [
        {
          "name": "passengers",
          "type": "address[]"
        }
      ],
      "payable": false,
      "stateMutability": "nonpayable",
      "type": "function"
    },
    {
      "constant": false,
      "inputs": [
        {
          "name": "flightCode",
          "type": "string"
        },
        {
          "name": "passenger",
          "type": "address"
        }
      ],
      "name": "getInsuredAmount",
      "outputs": [
        {
          "name": "amount",
          "type": "uint256"
        }
      ],
      "payable": false,
      "stateMutability": "nonpayable",
      "type": "function"
    },
    {
      "constant": false,
      "inputs": [
        {
          "name": "flight",
          "type": "string"
        },
        {
          "name": "passenger",
          "type": "address"
        },
        {
          "name": "amount",
          "type": "uint256"
        }
      ],
      "name": "setInsuredAmount",
      "outputs": [],
      "payable": false,
      "stateMutability": "nonpayable",
      "type": "function"
    },
    {
      "constant": false,
      "inputs": [
        {
          "name": "passenger",
          "type": "address"
        }
      ],
      "name": "getPassengerBalance",
      "outputs": [
        {
          "name": "balance",
          "type": "uint256"
        }
      ],
      "payable": false,
      "stateMutability": "nonpayable",
      "type": "function"
    },
    {
      "constant": false,
      "inputs": [
        {
          "name": "wallet",
          "type": "address"
        }
      ],
      "name": "withdraw",
      "outputs": [],
      "payable": true,
      "stateMutability": "payable",
      "type": "function"
    },
    {
      "constant": false,
      "inputs": [
        {
          "name": "fundingAmount",
          "type": "uint256"
        },
        {
          "name": "wallet",
          "type": "address"
        }
      ],
      "name": "fund",
      "outputs": [],
      "payable": true,
      "stateMutability": "payable",
      "type": "function"
    },
    {
      "constant": true,
      "inputs": [
        {
          "name": "wallet",
          "type": "address"
        },
        {
          "name": "flightCode",
          "type": "string"
        }
      ],
      "name": "getFlightIndex",
      "outputs": [
        {
          "name": "index",
          "type": "uint256"
        }
      ],
      "payable": false,
      "stateMutability": "view",
      "type": "function"
    }
  ],
  "bytecode": "0x60806040526001600060146101000a81548160ff02191690831515021790555060006001556000604051908082528060200260200182016040528015620000555781602001602082028038833980820191505090505b50600290805190602001906200006d92919062000299565b503480156200007b57600080fd5b5060405160208062002fb583398101806040528101908080519060200190929190505050336000806101000a81548173ffffffffffffffffffffffffffffffffffffffff021916908373ffffffffffffffffffffffffffffffffffffffff160217905550620000f98162000100640100000000026401000000009004565b506200036e565b600060149054906101000a900460ff161515620001ab576040517f08c379a00000000000000000000000000000000000000000000000000000000081526004018080602001828103825260258152602001807f436f6e74726163742069732063757272656e746c79206e6f74206f706572617481526020017f696f6e616c00000000000000000000000000000000000000000000000000000081525060400191505060405180910390fd5b60408051908101604052806001151581526020016000815250600360008373ffffffffffffffffffffffffffffffffffffffff1673ffffffffffffffffffffffffffffffffffffffff16815260200190815260200160002060008201518160000160006101000a81548160ff0219169083151502179055506020820151816001015590505060048190806001815401808255809150509060018203906000526020600020016000909192909190916101000a81548173ffffffffffffffffffffffffffffffffffffffff021916908373ffffffffffffffffffffffffffffffffffffffff1602179055505050565b82805482825590600052602060002090810192821562000315579160200282015b82811115620003145782518260006101000a81548173ffffffffffffffffffffffffffffffffffffffff021916908373ffffffffffffffffffffffffffffffffffffffff16021790555091602001919060010190620002ba565b5b50905062000324919062000328565b5090565b6200036b91905b808211156200036757600081816101000a81549073ffffffffffffffffffffffffffffffffffffffff0219169055506001016200032f565b5090565b90565b612c37806200037e6000396000f300608060405260043610610149576000357c0100000000000000000000000000000000000000000000000000000000900463ffffffff168063010c5c97146101665780630549409a146101c157806306540f36146101d85780630a40389c1461023d578063110466ed146102cd578063174c7c65146102fc578063385de787146103275780634512e6bc1461037e57806351cff8d9146103a9578063609ab31d146103df57806364b4f7511461047c5780636f9fb98a146104a757806394d26b11146104d2578063adc232b514610515578063b1c6513014610584578063b5b2921f146105f1578063bdfd987714610648578063c55462f61461068b578063c68860b4146106e2578063c6a5d72f1461074f578063c7cd035c1461080c578063cd905dff14610867578063ce4d57cc14610896578063eee92395146108f1578063f53b6d6514610931575b61015e3460015461098c90919063ffffffff16565b600181905550005b34801561017257600080fd5b506101a7600480360381019080803573ffffffffffffffffffffffffffffffffffffffff1690602001909291905050506109a8565b604051808215151515815260200191505060405180910390f35b3480156101cd57600080fd5b506101d6610aaa565b005b3480156101e457600080fd5b5061023b600480360381019080803590602001908201803590602001919091929391929390803573ffffffffffffffffffffffffffffffffffffffff16906020019092919080359060200190929190505050610af3565b005b34801561024957600080fd5b50610276600480360381019080803590602001908201803590602001919091929391929390505050610cf5565b6040518080602001828103825283818151815260200191508051906020019060200280838360005b838110156102b957808201518184015260208101905061029e565b505050509050019250505060405180910390f35b3480156102d957600080fd5b506102fa600480360381019080803515159060200190929190505050610e53565b005b34801561030857600080fd5b50610311610f34565b6040518082815260200191505060405180910390f35b34801561033357600080fd5b50610368600480360381019080803573ffffffffffffffffffffffffffffffffffffffff169060200190929190505050610f41565b6040518082815260200191505060405180910390f35b34801561038a57600080fd5b50610393611033565b6040518082815260200191505060405180910390f35b6103dd600480360381019080803573ffffffffffffffffffffffffffffffffffffffff1690602001909291905050506110e9565b005b3480156103eb57600080fd5b50610466600480360381019080803573ffffffffffffffffffffffffffffffffffffffff169060200190929190803590602001908201803590602001908080601f0160208091040260200160405190810160405280939291908181526020018383808284378201915050505050509192919290505050611327565b6040518082815260200191505060405180910390f35b34801561048857600080fd5b5061049161167f565b6040518082815260200191505060405180910390f35b3480156104b357600080fd5b506104bc61168b565b6040518082815260200191505060405180910390f35b3480156104de57600080fd5b50610513600480360381019080803573ffffffffffffffffffffffffffffffffffffffff16906020019092919050505061173e565b005b34801561052157600080fd5b5061056e600480360381019080803590602001908201803590602001919091929391929390803573ffffffffffffffffffffffffffffffffffffffff1690602001909291905050506117a7565b6040518082815260200191505060405180910390f35b34801561059057600080fd5b506105af6004803603810190808035906020019092919050505061197c565b604051808273ffffffffffffffffffffffffffffffffffffffff1673ffffffffffffffffffffffffffffffffffffffff16815260200191505060405180910390f35b3480156105fd57600080fd5b50610632600480360381019080803573ffffffffffffffffffffffffffffffffffffffff1690602001909291905050506119ba565b6040518082815260200191505060405180910390f35b34801561065457600080fd5b50610689600480360381019080803573ffffffffffffffffffffffffffffffffffffffff169060200190929190505050611aaf565b005b34801561069757600080fd5b506106cc600480360381019080803573ffffffffffffffffffffffffffffffffffffffff169060200190929190505050611c47565b6040518082815260200191505060405180910390f35b3480156106ee57600080fd5b5061070d60048036038101908080359060200190929190505050611d39565b604051808273ffffffffffffffffffffffffffffffffffffffff1673ffffffffffffffffffffffffffffffffffffffff16815260200191505060405180910390f35b34801561075b57600080fd5b5061080a600480360381019080803590602001908201803590602001908080601f016020809104026020016040519081016040528093929190818152602001838380828437820191505050505050919291929080359060200190929190803573ffffffffffffffffffffffffffffffffffffffff169060200190929190803573ffffffffffffffffffffffffffffffffffffffff16906020019092919080359060200190929190505050611d7c565b005b34801561081857600080fd5b5061084d600480360381019080803573ffffffffffffffffffffffffffffffffffffffff169060200190929190505050612462565b604051808215151515815260200191505060405180910390f35b34801561087357600080fd5b5061087c612564565b604051808215151515815260200191505060405180910390f35b3480156108a257600080fd5b506108d7600480360381019080803573ffffffffffffffffffffffffffffffffffffffff16906020019092919050505061257a565b604051808215151515815260200191505060405180910390f35b61092f60048036038101908080359060200190929190803573ffffffffffffffffffffffffffffffffffffffff1690602001909291905050506125a5565b005b34801561093d57600080fd5b50610972600480360381019080803573ffffffffffffffffffffffffffffffffffffffff169060200190929190505050612709565b604051808215151515815260200191505060405180910390f35b6000818301905082811015151561099f57fe5b80905092915050565b60008060149054906101000a900460ff161515610a53576040517f08c379a00000000000000000000000000000000000000000000000000000000081526004018080602001828103825260258152602001807f436f6e74726163742069732063757272656e746c79206e6f74206f706572617481526020017f696f6e616c00000000000000000000000000000000000000000000000000000081525060400191505060405180910390fd5b600360008373ffffffffffffffffffffffffffffffffffffffff1673ffffffffffffffffffffffffffffffffffffffff16815260200190815260200160002060000160009054906101000a900460ff169050919050565b6000604051908082528060200260200182016040528015610ada5781602001602082028038833980820191505090505b5060029080519060200190610af0929190612822565b50565b60008060149054906101000a900460ff161515610b9e576040517f08c379a00000000000000000000000000000000000000000000000000000000081526004018080602001828103825260258152602001807f436f6e74726163742069732063757272656e746c79206e6f74206f706572617481526020017f696f6e616c00000000000000000000000000000000000000000000000000000081525060400191505060405180910390fd5b6001610bdc8487878080601f016020809104026020016040519081016040528093929190818152602001838380828437820191505050505050611327565b0390506001600660008573ffffffffffffffffffffffffffffffffffffffff1673ffffffffffffffffffffffffffffffffffffffff16815260200190815260200160002060010182815481101515610c3057fe5b90600052602060002090602091828204019190066101000a81548160ff021916908315150217905550610cab82600860008673ffffffffffffffffffffffffffffffffffffffff1673ffffffffffffffffffffffffffffffffffffffff1681526020019081526020016000205461098c90919063ffffffff16565b600860008573ffffffffffffffffffffffffffffffffffffffff1673ffffffffffffffffffffffffffffffffffffffff168152602001908152602001600020819055505050505050565b6060600060149054906101000a900460ff161515610da1576040517f08c379a00000000000000000000000000000000000000000000000000000000081526004018080602001828103825260258152602001807f436f6e74726163742069732063757272656e746c79206e6f74206f706572617481526020017f696f6e616c00000000000000000000000000000000000000000000000000000081525060400191505060405180910390fd5b60078383604051808383808284378201915050925050509081526020016040518091039020805480602002602001604051908101604052809291908181526020018280548015610e4657602002820191906000526020600020905b8160009054906101000a900473ffffffffffffffffffffffffffffffffffffffff1673ffffffffffffffffffffffffffffffffffffffff1681526020019060010190808311610dfc575b5050505050905092915050565b6000809054906101000a900473ffffffffffffffffffffffffffffffffffffffff1673ffffffffffffffffffffffffffffffffffffffff163373ffffffffffffffffffffffffffffffffffffffff16141515610f17576040517f08c379a000000000000000000000000000000000000000000000000000000000815260040180806020018281038252601c8152602001807f43616c6c6572206973206e6f7420636f6e7472616374206f776e65720000000081525060200191505060405180910390fd5b80600060146101000a81548160ff02191690831515021790555050565b6000600280549050905090565b60008060149054906101000a900460ff161515610fec576040517f08c379a00000000000000000000000000000000000000000000000000000000081526004018080602001828103825260258152602001807f436f6e74726163742069732063757272656e746c79206e6f74206f706572617481526020017f696f6e616c00000000000000000000000000000000000000000000000000000081525060400191505060405180910390fd5b600860008373ffffffffffffffffffffffffffffffffffffffff1673ffffffffffffffffffffffffffffffffffffffff168152602001908152602001600020549050919050565b60008060149054906101000a900460ff1615156110de576040517f08c379a00000000000000000000000000000000000000000000000000000000081526004018080602001828103825260258152602001807f436f6e74726163742069732063757272656e746c79206e6f74206f706572617481526020017f696f6e616c00000000000000000000000000000000000000000000000000000081525060400191505060405180910390fd5b600480549050905090565b60008060149054906101000a900460ff161515611194576040517f08c379a00000000000000000000000000000000000000000000000000000000081526004018080602001828103825260258152602001807f436f6e74726163742069732063757272656e746c79206e6f74206f706572617481526020017f696f6e616c00000000000000000000000000000000000000000000000000000081525060400191505060405180910390fd5b6000600860008473ffffffffffffffffffffffffffffffffffffffff1673ffffffffffffffffffffffffffffffffffffffff1681526020019081526020016000205411151561124b576040517f08c379a00000000000000000000000000000000000000000000000000000000081526004018080602001828103825260138152602001807f5468657265206973206e6f207061796f75742e0000000000000000000000000081525060200191505060405180910390fd5b600860008373ffffffffffffffffffffffffffffffffffffffff1673ffffffffffffffffffffffffffffffffffffffff1681526020019081526020016000205490506000600860008473ffffffffffffffffffffffffffffffffffffffff1673ffffffffffffffffffffffffffffffffffffffff168152602001908152602001600020819055506112e78160015461280990919063ffffffff16565b6001819055508173ffffffffffffffffffffffffffffffffffffffff166108fc829081150290604051600060405180830381858888f19350505050505050565b600060606000600560405190808252806020026020018201604052801561136257816020015b606081526020019060019003908161134d5790505b509150600660008673ffffffffffffffffffffffffffffffffffffffff1673ffffffffffffffffffffffffffffffffffffffff168152602001908152602001600020600301805480602002602001604051908101604052809291908181526020016000905b82821015611483578382906000526020600020018054600181600116156101000203166002900480601f01602080910402602001604051908101604052809291908181526020018280546001816001161561010002031660029004801561146f5780601f106114445761010080835404028352916020019161146f565b820191906000526020600020905b81548152906001019060200180831161145257829003601f168201915b5050505050815260200190600101906113c7565b505050509150600090505b815181101561167257836040516020018082805190602001908083835b6020831015156114d057805182526020820191506020810190506020830392506114ab565b6001836020036101000a0380198251168184511680821785525050505050509050019150506040516020818303038152906040526040518082805190602001908083835b6020831015156115395780518252602082019150602081019050602083039250611514565b6001836020036101000a038019825116818451168082178552505050505050905001915050604051809103902060019004828281518110151561157857fe5b906020019060200201516040516020018082805190602001908083835b6020831015156115ba5780518252602082019150602081019050602083039250611595565b6001836020036101000a0380198251168184511680821785525050505050509050019150506040516020818303038152906040526040518082805190602001908083835b60208310151561162357805182526020820191506020810190506020830392506115fe565b6001836020036101000a038019825116818451168082178552505050505050905001915050604051809103902060019004141561166557600181019250611677565b808060010191505061148e565b600092505b505092915050565b678ac7230489e8000081565b60008060149054906101000a900460ff161515611736576040517f08c379a00000000000000000000000000000000000000000000000000000000081526004018080602001828103825260258152602001807f436f6e74726163742069732063757272656e746c79206e6f74206f706572617481526020017f696f6e616c00000000000000000000000000000000000000000000000000000081525060400191505060405180910390fd5b600154905090565b60028190806001815401808255809150509060018203906000526020600020016000909192909190916101000a81548173ffffffffffffffffffffffffffffffffffffffff021916908373ffffffffffffffffffffffffffffffffffffffff1602179055505050565b600080600060149054906101000a900460ff161515611854576040517f08c379a00000000000000000000000000000000000000000000000000000000081526004018080602001828103825260258152602001807f436f6e74726163742069732063757272656e746c79206e6f74206f706572617481526020017f696f6e616c00000000000000000000000000000000000000000000000000000081525060400191505060405180910390fd5b6000915060016118968487878080601f016020809104026020016040519081016040528093929190818152602001838380828437820191505050505050611327565b03905060001515600660008573ffffffffffffffffffffffffffffffffffffffff1673ffffffffffffffffffffffffffffffffffffffff168152602001908152602001600020600101828154811015156118ec57fe5b90600052602060002090602091828204019190069054906101000a900460ff161515141561197157600660008473ffffffffffffffffffffffffffffffffffffffff1673ffffffffffffffffffffffffffffffffffffffff1681526020019081526020016000206002018181548110151561196357fe5b906000526020600020015491505b819150509392505050565b60028181548110151561198b57fe5b906000526020600020016000915054906101000a900473ffffffffffffffffffffffffffffffffffffffff1681565b60008060149054906101000a900460ff161515611a65576040517f08c379a00000000000000000000000000000000000000000000000000000000081526004018080602001828103825260258152602001807f436f6e74726163742069732063757272656e746c79206e6f74206f706572617481526020017f696f6e616c00000000000000000000000000000000000000000000000000000081525060400191505060405180910390fd5b600360008373ffffffffffffffffffffffffffffffffffffffff1673ffffffffffffffffffffffffffffffffffffffff168152602001908152602001600020600101549050919050565b600060149054906101000a900460ff161515611b59576040517f08c379a00000000000000000000000000000000000000000000000000000000081526004018080602001828103825260258152602001807f436f6e74726163742069732063757272656e746c79206e6f74206f706572617481526020017f696f6e616c00000000000000000000000000000000000000000000000000000081525060400191505060405180910390fd5b60408051908101604052806001151581526020016000815250600360008373ffffffffffffffffffffffffffffffffffffffff1673ffffffffffffffffffffffffffffffffffffffff16815260200190815260200160002060008201518160000160006101000a81548160ff0219169083151502179055506020820151816001015590505060048190806001815401808255809150509060018203906000526020600020016000909192909190916101000a81548173ffffffffffffffffffffffffffffffffffffffff021916908373ffffffffffffffffffffffffffffffffffffffff1602179055505050565b60008060149054906101000a900460ff161515611cf2576040517f08c379a00000000000000000000000000000000000000000000000000000000081526004018080602001828103825260258152602001807f436f6e74726163742069732063757272656e746c79206e6f74206f706572617481526020017f696f6e616c00000000000000000000000000000000000000000000000000000081525060400191505060405180910390fd5b600860008373ffffffffffffffffffffffffffffffffffffffff1673ffffffffffffffffffffffffffffffffffffffff168152602001908152602001600020549050919050565b6000600282815481101515611d4a57fe5b9060005260206000200160009054906101000a900473ffffffffffffffffffffffffffffffffffffffff169050919050565b606080606060008060149054906101000a900460ff161515611e2c576040517f08c379a00000000000000000000000000000000000000000000000000000000081526004018080602001828103825260258152602001807f436f6e74726163742069732063757272656e746c79206e6f74206f706572617481526020017f696f6e616c00000000000000000000000000000000000000000000000000000081525060400191505060405180910390fd5b6005604051908082528060200260200182016040528015611e6157816020015b6060815260200190600190039081611e4c5790505b5093506005604051908082528060200260200182016040528015611e945781602001602082028038833980820191505090505b5092506005604051908082528060200260200182016040528015611ec75781602001602082028038833980820191505090505b509150600660008773ffffffffffffffffffffffffffffffffffffffff1673ffffffffffffffffffffffffffffffffffffffff16815260200190815260200160002060000160009054906101000a900460ff161561214157611f29868a611327565b9050600081141515611fc9576040517f08c379a00000000000000000000000000000000000000000000000000000000081526004018080602001828103825260288152602001807f50617373656e6765722063616e206e6f7420696e73757265207468652073616d81526020017f6520666c6967687400000000000000000000000000000000000000000000000081525060400191505060405180910390fd5b600660008773ffffffffffffffffffffffffffffffffffffffff1673ffffffffffffffffffffffffffffffffffffffff1681526020019081526020016000206001016000908060018154018082558091505090600182039060005260206000209060209182820401919006909192909190916101000a81548160ff02191690831515021790555050600660008773ffffffffffffffffffffffffffffffffffffffff1673ffffffffffffffffffffffffffffffffffffffff168152602001908152602001600020600201859080600181540180825580915050906001820390600052602060002001600090919290919091505550600660008773ffffffffffffffffffffffffffffffffffffffff1673ffffffffffffffffffffffffffffffffffffffff16815260200190815260200160002060030189908060018154018082558091505090600182039060005260206000200160009091929091909150908051906020019061213a9291906128ac565b5050612280565b600083600081518110151561215257fe5b90602001906020020190151590811515815250508482600081518110151561217657fe5b90602001906020020181815250508884600081518110151561219457fe5b9060200190602002018190525060806040519081016040528060011515815260200184815260200183815260200185815250600660008873ffffffffffffffffffffffffffffffffffffffff1673ffffffffffffffffffffffffffffffffffffffff16815260200190815260200160002060008201518160000160006101000a81548160ff021916908315150217905550602082015181600101908051906020019061224192919061292c565b50604082015181600201908051906020019061225e9291906129d2565b50606082015181600301908051906020019061227b929190612a1f565b509050505b6122958560015461098c90919063ffffffff16565b6001819055506007896040518082805190602001908083835b6020831015156122d357805182526020820191506020810190506020830392506122ae565b6001836020036101000a03801982511681845116808217855250505050505090500191505090815260200160405180910390208690806001815401808255809150509060018203906000526020600020016000909192909190916101000a81548173ffffffffffffffffffffffffffffffffffffffff021916908373ffffffffffffffffffffffffffffffffffffffff160217905550506123e88560058b6040518082805190602001908083835b6020831015156123a65780518252602082019150602081019050602083039250612381565b6001836020036101000a03801982511681845116808217855250505050505090500191505090815260200160405180910390205461098c90919063ffffffff16565b60058a6040518082805190602001908083835b60208310151561242057805182526020820191506020810190506020830392506123fb565b6001836020036101000a038019825116818451168082178552505050505050905001915050908152602001604051809103902081905550505050505050505050565b60008060149054906101000a900460ff16151561250d576040517f08c379a00000000000000000000000000000000000000000000000000000000081526004018080602001828103825260258152602001807f436f6e74726163742069732063757272656e746c79206e6f74206f706572617481526020017f696f6e616c00000000000000000000000000000000000000000000000000000081525060400191505060405180910390fd5b600660008373ffffffffffffffffffffffffffffffffffffffff1673ffffffffffffffffffffffffffffffffffffffff16815260200190815260200160002060000160009054906101000a900460ff169050919050565b60008060149054906101000a900460ff16905090565b60066020528060005260406000206000915090508060000160009054906101000a900460ff16905081565b600060149054906101000a900460ff16151561264f576040517f08c379a00000000000000000000000000000000000000000000000000000000081526004018080602001828103825260258152602001807f436f6e74726163742069732063757272656e746c79206e6f74206f706572617481526020017f696f6e616c00000000000000000000000000000000000000000000000000000081525060400191505060405180910390fd5b6126a482600360008473ffffffffffffffffffffffffffffffffffffffff1673ffffffffffffffffffffffffffffffffffffffff1681526020019081526020016000206001015461098c90919063ffffffff16565b600360008373ffffffffffffffffffffffffffffffffffffffff1673ffffffffffffffffffffffffffffffffffffffff168152602001908152602001600020600101819055506126ff8260015461098c90919063ffffffff16565b6001819055505050565b60008060149054906101000a900460ff1615156127b4576040517f08c379a00000000000000000000000000000000000000000000000000000000081526004018080602001828103825260258152602001807f436f6e74726163742069732063757272656e746c79206e6f74206f706572617481526020017f696f6e616c00000000000000000000000000000000000000000000000000000081525060400191505060405180910390fd5b678ac7230489e80000600360008473ffffffffffffffffffffffffffffffffffffffff1673ffffffffffffffffffffffffffffffffffffffff1681526020019081526020016000206001015410159050919050565b600082821115151561281757fe5b818303905092915050565b82805482825590600052602060002090810192821561289b579160200282015b8281111561289a5782518260006101000a81548173ffffffffffffffffffffffffffffffffffffffff021916908373ffffffffffffffffffffffffffffffffffffffff16021790555091602001919060010190612842565b5b5090506128a89190612a7f565b5090565b828054600181600116156101000203166002900490600052602060002090601f016020900481019282601f106128ed57805160ff191683800117855561291b565b8280016001018555821561291b579182015b8281111561291a5782518255916020019190600101906128ff565b5b5090506129289190612ac2565b5090565b82805482825590600052602060002090601f016020900481019282156129c15791602002820160005b8382111561299257835183826101000a81548160ff0219169083151502179055509260200192600101602081600001049283019260010302612955565b80156129bf5782816101000a81549060ff0219169055600101602081600001049283019260010302612992565b505b5090506129ce9190612ae7565b5090565b828054828255906000526020600020908101928215612a0e579160200282015b82811115612a0d5782518255916020019190600101906129f2565b5b509050612a1b9190612ac2565b5090565b828054828255906000526020600020908101928215612a6e579160200282015b82811115612a6d578251829080519060200190612a5d929190612b17565b5091602001919060010190612a3f565b5b509050612a7b9190612b97565b5090565b612abf91905b80821115612abb57600081816101000a81549073ffffffffffffffffffffffffffffffffffffffff021916905550600101612a85565b5090565b90565b612ae491905b80821115612ae0576000816000905550600101612ac8565b5090565b90565b612b1491905b80821115612b1057600081816101000a81549060ff021916905550600101612aed565b5090565b90565b828054600181600116156101000203166002900490600052602060002090601f016020900481019282601f10612b5857805160ff1916838001178555612b86565b82800160010185558215612b86579182015b82811115612b85578251825591602001919060010190612b6a565b5b509050612b939190612ac2565b5090565b612bc091905b80821115612bbc5760008181612bb39190612bc3565b50600101612b9d565b5090565b90565b50805460018160011615610100020316600290046000825580601f10612be95750612c08565b601f016020900490600052602060002090810190612c079190612ac2565b5b505600a165627a7a72305820a1973753d958bd86a57caadb000e3df91318c9378f225c37e0fff072837fbad40029",
  "source": "pragma solidity ^0.4.25;\n\nimport \"../node_modules/openzeppelin-solidity/contracts/math/SafeMath.sol\";\n\ncontract FlightSuretyData {\n    using SafeMath for uint256;\n\n    /********************************************************************************************/\n    /*                                       DATA VARIABLES                                     */\n    /********************************************************************************************/\n\n    address private contractOwner;                                      // Account used to deploy contract\n    bool private operational = true;                                    // Blocks all state changes throughout the contract if false\n    uint256 private contractBalance = 0 ether;\n\n    address[] public multiCalls = new address[](0);\n\n    // Airlines\n    struct Airline {\n        bool registered;\n        uint256 balance;\n    }\n\n    mapping(address => Airline) private airlines;\n    address[] private registeredAirlines;\n    uint256 public constant REGISTRATION_FEE = 10 ether;\n\n\n    struct Passenger {   //Passenger Struct\n        bool isInsured;\n        bool[] isPaid;\n        uint256[] insurancePaid;\n        string[] flights;\n    }\n\n    //Flight mapping Amount\n    mapping(string => uint256) private flightInsuranceTotalAmount;\n\n    //Passenger mapping\n    mapping(address => Passenger) public insurancePassengers;\n\n    //Flight mapping Passenger\n    mapping(string => address[]) private flightPassengers;\n\n    //Passenger address to insurance payment. Stores Insurance payouts for passengers\n    mapping(address => uint256) private insurancePayment;\n\n    /********************************************************************************************/\n    /*                                       EVENT DEFINITIONS                                  */\n    /********************************************************************************************/\n\n\n    /**\n    * @dev Constructor\n    *      The deploying account becomes contractOwner\n    */\n    constructor\n                (\n                    address wallet\n                ) \n                public\n    {\n        contractOwner = msg.sender;\n        initialFirstAirline(wallet);\n    }\n\n    /********************************************************************************************/\n    /*                                       FUNCTION MODIFIERS                                 */\n    /********************************************************************************************/\n\n    // Modifiers help avoid duplication of code. They are typically used to validate something\n    // before a function is allowed to be executed.\n\n    /**\n    * @dev Modifier that requires the \"operational\" boolean variable to be \"true\"\n    *      This is used on all state changing functions to pause the contract in \n    *      the event there is an issue that needs to be fixed\n    */\n    modifier requireIsOperational()\n    {\n        require(operational, \"Contract is currently not operational\");\n        _;\n        // All modifiers require an \"_\" which indicates where the function body will be added\n    }\n\n    /**\n    * @dev Modifier that requires the \"ContractOwner\" account to be the function caller\n    */\n    modifier requireContractOwner()\n    {\n        require(msg.sender == contractOwner, \"Caller is not contract owner\");\n        _;\n    }\n\n    /********************************************************************************************/\n    /*                                       UTILITY FUNCTIONS                                  */\n    /********************************************************************************************/\n\n    function clearMultiCalls() public{\n        multiCalls = new address[](0);\n    }\n\n    function getMultiCallsItem(uint _i) public returns(address){\n        return multiCalls[_i];\n    }\n\n    function multiCallsLength() public returns(uint){\n        return multiCalls.length;\n    }\n\n    \n    function putMultiCallsItem(address _address) public {\n        multiCalls.push(_address);\n    }\n\n    function isPassengerInsured\n                                (\n                                    address passenger\n                                )\n                                public\n                                requireIsOperational\n                                returns (bool isInsured)\n        {\n            return insurancePassengers[passenger].isInsured;\n        }\n\n        /**\n    * @dev Sets contract operations on/off\n    *\n    * When operational mode is disabled, all write transactions except for this one will fail\n    */\n    function setOperatingStatus(bool mode) external requireContractOwner\n    {\n        operational = mode;\n    }\n\n\n    /**\n    * @dev Get operating status of contract\n    *\n    * @return A bool that is the current operating status\n    */\n    function isOperational() public view returns (bool)\n    {\n        return operational;\n    }\n\n        function isAirlineRegistered\n                                (\n                                    address wallet\n                                ) \n                                view \n                                requireIsOperational \n                                returns (bool success) \n    {\n        return airlines[wallet].registered;\n    }\n\n    function isAirlineFunded(\n                                address wallet\n                            ) \n                            view \n                            requireIsOperational \n                            returns (bool success) \n    {\n        return airlines[wallet].balance >= REGISTRATION_FEE;\n    }\n\n    function getAirlineNum() \n                            view \n                            requireIsOperational \n                            returns (uint num)\n    {\n        return registeredAirlines.length;\n    }\n\n\n    function getPassengerCredits\n                                (\n                                    address wallet\n                                )\n                                external \n                                view \n                                requireIsOperational \n                                returns(uint256 amount)\n    {\n        return insurancePayment[wallet];\n    }\n\n    /********************************************************************************************/\n    /*                                     SMART CONTRACT FUNCTIONS                             */\n    /********************************************************************************************/\n    function getContractBalance() \n                                external \n                                view \n                                requireIsOperational \n                                returns(uint256 balance)\n    {\n        return contractBalance;\n    }\n\n    function getAirlineFund\n                            (\n                                address wallet\n                            ) \n                            external \n                            view \n                            requireIsOperational \n                            returns(uint256 balance)\n    {\n        return airlines[wallet].balance;\n    }\n\n    function initialFirstAirline\n                                (\n                                    address wallet\n                                ) \n                                internal \n                                requireIsOperational\n    {\n        airlines[wallet] = Airline({registered : true, balance : 0});\n        registeredAirlines.push(wallet);\n    }\n    /**\n     * @dev Add an airline to the registration queue\n     *      Can only be called from FlightSuretyApp contract\n     *\n     */\n    function registerAirline\n                            (\n                                address wallet\n                            ) \n                            external \n                            requireIsOperational\n    {\n        airlines[wallet] = Airline({registered : true, balance : 0});\n        registeredAirlines.push(wallet);\n    }\n\n    /**\n     * @dev Buy insurance for a flight\n     *\n     */\n    function buy\n                (\n                    string memory flightCode,\n                    uint256 timestamp,\n                    address airlineWallet,\n                    address passengerWallet,\n                    uint256 payedAmount\n                ) \n                public \n                requireIsOperational\n    {\n        string[] memory _flights = new string[](5);\n        bool[] memory paid = new bool[](5);\n        uint256[] memory insurance = new uint[](5);\n        uint index;\n\n        if (insurancePassengers[passengerWallet].isInsured) {\n            index = getFlightIndex(passengerWallet, flightCode) ;\n\n            require(index == 0, \"Passenger can not insure the same flight\");\n\n            insurancePassengers[passengerWallet].isPaid.push(false);\n            insurancePassengers[passengerWallet].insurancePaid.push(payedAmount);\n            insurancePassengers[passengerWallet].flights.push(flightCode);\n\n        }\n        else {\n            // initial insurance\n            paid[0] = false;\n            insurance[0] = payedAmount;\n            _flights[0] = flightCode;\n            insurancePassengers[passengerWallet] = Passenger({\n                                                                isInsured: true, \n                                                                isPaid: paid, \n                                                                insurancePaid: insurance, \n                                                                flights: _flights\n                                                            });\n        }\n\n        // insurance amount cal\n        contractBalance = contractBalance.add(payedAmount);\n        flightPassengers[flightCode].push(passengerWallet);\n        flightInsuranceTotalAmount[flightCode] = flightInsuranceTotalAmount[flightCode].add(payedAmount);\n    }\n\n    function getPassengersInsured\n                                    (\n                                        string flightCode\n                                    ) \n                                    external \n                                    requireIsOperational \n                                    returns(address[] passengers)\n    {\n        return flightPassengers[flightCode];\n    }\n\n    function getInsuredAmount\n                            (\n                                string  flightCode,\n                                address passenger\n                            ) \n                            external \n                            requireIsOperational \n                            returns(uint amount)\n    {\n        amount = 0;\n        uint index = getFlightIndex(passenger, flightCode) - 1;\n        if(insurancePassengers[passenger].isPaid[index] == false)\n        {\n            amount = insurancePassengers[passenger].insurancePaid[index];\n        }\n        return amount;\n    }\n\n    function setInsuredAmount\n                            (\n                                string  flight,\n                                address passenger,\n                                uint amount\n                            ) \n                            external \n                            requireIsOperational\n    {\n        uint index = getFlightIndex(passenger, flight) - 1;\n        insurancePassengers[passenger].isPaid[index] = true;\n        insurancePayment[passenger] = insurancePayment[passenger].add(amount);\n    }\n\n    function getPassengerBalance(address passenger)\n                                external\n                                requireIsOperational\n                                returns (uint256 balance)\n    {\n        return insurancePayment[passenger];\n    }\n\n    function withdraw\n                    (\n                        address wallet\n                    ) \n                    external \n                    payable \n                    requireIsOperational\n    {\n        require(insurancePayment[wallet] > 0, \"There is no payout.\");\n        uint amountToPay  = insurancePayment[wallet];\n        insurancePayment[wallet] = 0;\n        contractBalance = contractBalance.sub(amountToPay);\n        wallet.send(amountToPay);\n    }\n\n    /**\n     * @dev Initial funding for the insurance. Unless there are too many delayed flights\n     *      resulting in insurance payouts, the contract should be self-sustaining\n     *\n     */\n    function fund\n                (\n                    uint256 fundingAmount, \n                    address wallet\n                ) \n                public \n                payable \n                requireIsOperational\n    {\n        airlines[wallet].balance = airlines[wallet].balance.add(fundingAmount);\n        contractBalance = contractBalance.add(fundingAmount);\n    }\n\n    function getFlightKey\n                        (\n                            address airline,\n                            string memory flightCode,\n                            uint256 timestamp\n                        ) \n                        pure \n                        internal \n                        returns (bytes32)\n    {\n        return keccak256(abi.encodePacked(airline, flightCode, timestamp));\n    }\n\n    function getFlightIndex\n                            (\n                                address wallet, \n                                string memory flightCode\n                            ) \n                            public \n                            view \n                            returns(uint index)\n    {\n        string[] memory flights = new string[](5);\n        flights = insurancePassengers[wallet].flights;\n\n        for(uint i = 0; i < flights.length; i++){\n            if(uint(keccak256(abi.encodePacked(flights[i]))) == uint(keccak256(abi.encodePacked(flightCode)))) {\n                return(i + 1);\n            }\n        }\n\n        return(0);\n    }\n\n\n    /**\n    * @dev Fallback function for funding smart contract.\n    *\n    */\n    function() external payable\n    {\n        contractBalance = contractBalance.add(msg.value);\n    }\n\n\n}\n\n",
  "sourcePath": "/Users/victor/Documents/Coding/Udacity/BlockchainNanodegree/Term2/FlightSurety_v2/contracts/FlightSuretyData.sol",
  "compiler": {
    "name": "solc",
    "version": "0.4.26+commit.4563c3fc.Emscripten.clang"
  },
  "schemaVersion": "3.0.16",
  "updatedAt": "2019-10-19T00:42:15.193Z",
  "devdoc": {
    "methods": {
      "buy(string,uint256,address,address,uint256)": {
        "details": "Buy insurance for a flight     "
      },
      "fund(uint256,address)": {
        "details": "Initial funding for the insurance. Unless there are too many delayed flights     resulting in insurance payouts, the contract should be self-sustaining     "
      },
      "isOperational()": {
        "details": "Get operating status of contract",
        "return": "A bool that is the current operating status"
      },
      "registerAirline(address)": {
        "details": "Add an airline to the registration queue     Can only be called from FlightSuretyApp contract     "
      },
      "setOperatingStatus(bool)": {
        "details": "Sets contract operations on/off    * When operational mode is disabled, all write transactions except for this one will fail"
      }
    }
  },
  "userdoc": {
    "methods": {
      "clearMultiCalls()": {
        "notice": "*****************************************************************************************"
      },
      "getContractBalance()": {
        "notice": "*****************************************************************************************"
      }
    }
  }
}